{
  "contractName": "ItemManager",
  "abi": [
    {
      "anonymous": false,
      "inputs": [
        {
          "indexed": true,
          "internalType": "address",
          "name": "previousOwner",
          "type": "address"
        },
        {
          "indexed": true,
          "internalType": "address",
          "name": "newOwner",
          "type": "address"
        }
      ],
      "name": "OwnershipTransferred",
      "type": "event"
    },
    {
      "anonymous": false,
      "inputs": [
        {
          "indexed": false,
          "internalType": "uint256",
          "name": "_itemIndex",
          "type": "uint256"
        },
        {
          "indexed": false,
          "internalType": "uint256",
          "name": "_step",
          "type": "uint256"
        },
        {
          "indexed": false,
          "internalType": "address",
          "name": "_itemAddress",
          "type": "address"
        }
      ],
      "name": "SupplyChainStep",
      "type": "event"
    },
    {
      "inputs": [
        {
          "internalType": "uint256",
          "name": "",
          "type": "uint256"
        }
      ],
      "name": "items",
      "outputs": [
        {
          "internalType": "contract Item",
          "name": "_item",
          "type": "address"
        },
        {
          "internalType": "string",
          "name": "_identifier",
          "type": "string"
        },
        {
          "internalType": "uint256",
          "name": "_price",
          "type": "uint256"
        },
        {
          "internalType": "enum ItemManager.Status",
          "name": "_status",
          "type": "uint8"
        }
      ],
      "stateMutability": "view",
      "type": "function"
    },
    {
      "inputs": [],
      "name": "owner",
      "outputs": [
        {
          "internalType": "address",
          "name": "",
          "type": "address"
        }
      ],
      "stateMutability": "view",
      "type": "function"
    },
    {
      "inputs": [],
      "name": "renounceOwnership",
      "outputs": [],
      "stateMutability": "nonpayable",
      "type": "function"
    },
    {
      "inputs": [
        {
          "internalType": "address",
          "name": "newOwner",
          "type": "address"
        }
      ],
      "name": "transferOwnership",
      "outputs": [],
      "stateMutability": "nonpayable",
      "type": "function"
    },
    {
      "inputs": [
        {
          "internalType": "string",
          "name": "_itemIdentifier",
          "type": "string"
        },
        {
          "internalType": "uint256",
          "name": "_itemPrice",
          "type": "uint256"
        }
      ],
      "name": "createItem",
      "outputs": [],
      "stateMutability": "nonpayable",
      "type": "function"
    },
    {
      "inputs": [],
      "name": "triggerPayment",
      "outputs": [],
      "stateMutability": "payable",
      "type": "function"
    },
    {
      "inputs": [],
      "name": "triggerDelivery",
      "outputs": [],
      "stateMutability": "nonpayable",
      "type": "function"
    }
  ],
  "bytecode": "0x608060405234801561001057600080fd5b5060006100216100c460201b60201c565b9050806000806101000a81548173ffffffffffffffffffffffffffffffffffffffff021916908373ffffffffffffffffffffffffffffffffffffffff1602179055508073ffffffffffffffffffffffffffffffffffffffff16600073ffffffffffffffffffffffffffffffffffffffff167f8be0079c531659141344cd1fd0a4f28419497f9722a3daafe3b4186f6b6457e060405160405180910390a3506100cc565b600033905090565b611e53806100db6000396000f3fe608060405260043610620000795760003560e01c80638c55174211620000555780638c55174214620000be5780638da5cb5b14620000ec578063bfb231d2146200011c578063f2fde38b14620001635762000079565b8062ce2057146200007e5780635f4fe7b6146200008a578063715018a614620000a4575b600080fd5b6200008862000191565b005b3480156200009757600080fd5b50620000a26200048c565b005b348015620000b157600080fd5b50620000bc6200072b565b005b348015620000cb57600080fd5b50620000ea6004803603810190620000e4919062000fb9565b6200086c565b005b348015620000f957600080fd5b506200010462000b5e565b60405162000113919062001291565b60405180910390f35b3480156200012957600080fd5b5062000148600480360381019062000142919062001013565b62000b87565b6040516200015a9493929190620012eb565b60405180910390f35b3480156200017057600080fd5b506200018f600480360381019062000189919062000f8d565b62000c74565b005b6200019b62000e27565b73ffffffffffffffffffffffffffffffffffffffff16620001bb62000b5e565b73ffffffffffffffffffffffffffffffffffffffff161462000214576040517f08c379a00000000000000000000000000000000000000000000000000000000081526004016200020b90620013c7565b60405180910390fd5b34600160006002548152602001908152602001600020600201541462000271576040517f08c379a00000000000000000000000000000000000000000000000000000000081526004016200026890620013a5565b60405180910390fd5b60006002811115620002ac577f4e487b7100000000000000000000000000000000000000000000000000000000600052602160045260246000fd5b60016000600254815260200190815260200160002060030160009054906101000a900460ff1660028111156200030b577f4e487b7100000000000000000000000000000000000000000000000000000000600052602160045260246000fd5b146200034e576040517f08c379a000000000000000000000000000000000000000000000000000000000815260040162000345906200133f565b60405180910390fd5b6001806000600254815260200190815260200160002060030160006101000a81548160ff02191690836002811115620003b0577f4e487b7100000000000000000000000000000000000000000000000000000000600052602160045260246000fd5b02179055507fa4035636e99f06b7651a604c1019fa4e8779fe68ef27eeb74dff2de348f6199b60025460016000600254815260200190815260200160002060030160009054906101000a900460ff16600281111562000438577f4e487b7100000000000000000000000000000000000000000000000000000000600052602160045260246000fd5b60016000600254815260200190815260200160002060000160009054906101000a900473ffffffffffffffffffffffffffffffffffffffff166040516200048293929190620013e9565b60405180910390a1565b6200049662000e27565b73ffffffffffffffffffffffffffffffffffffffff16620004b662000b5e565b73ffffffffffffffffffffffffffffffffffffffff16146200050f576040517f08c379a00000000000000000000000000000000000000000000000000000000081526004016200050690620013c7565b60405180910390fd5b600160028111156200054a577f4e487b7100000000000000000000000000000000000000000000000000000000600052602160045260246000fd5b60016000600254815260200190815260200160002060030160009054906101000a900460ff166002811115620005a9577f4e487b7100000000000000000000000000000000000000000000000000000000600052602160045260246000fd5b14620005ec576040517f08c379a0000000000000000000000000000000000000000000000000000000008152600401620005e39062001383565b60405180910390fd5b600260016000600254815260200190815260200160002060030160006101000a81548160ff021916908360028111156200064f577f4e487b7100000000000000000000000000000000000000000000000000000000600052602160045260246000fd5b02179055507fa4035636e99f06b7651a604c1019fa4e8779fe68ef27eeb74dff2de348f6199b60025460016000600254815260200190815260200160002060030160009054906101000a900460ff166002811115620006d7577f4e487b7100000000000000000000000000000000000000000000000000000000600052602160045260246000fd5b60016000600254815260200190815260200160002060000160009054906101000a900473ffffffffffffffffffffffffffffffffffffffff166040516200072193929190620013e9565b60405180910390a1565b6200073562000e27565b73ffffffffffffffffffffffffffffffffffffffff166200075562000b5e565b73ffffffffffffffffffffffffffffffffffffffff1614620007ae576040517f08c379a0000000000000000000000000000000000000000000000000000000008152600401620007a590620013c7565b60405180910390fd5b600073ffffffffffffffffffffffffffffffffffffffff1660008054906101000a900473ffffffffffffffffffffffffffffffffffffffff1673ffffffffffffffffffffffffffffffffffffffff167f8be0079c531659141344cd1fd0a4f28419497f9722a3daafe3b4186f6b6457e060405160405180910390a360008060006101000a81548173ffffffffffffffffffffffffffffffffffffffff021916908373ffffffffffffffffffffffffffffffffffffffff160217905550565b6200087662000e27565b73ffffffffffffffffffffffffffffffffffffffff166200089662000b5e565b73ffffffffffffffffffffffffffffffffffffffff1614620008ef576040517f08c379a0000000000000000000000000000000000000000000000000000000008152600401620008e690620013c7565b60405180910390fd5b60003082600254604051620009049062000e2f565b6200091293929190620012ae565b604051809103906000f0801580156200092f573d6000803e3d6000fd5b5090503082600254604051620009459062000e2f565b6200095393929190620012ae565b604051809103906000f08015801562000970573d6000803e3d6000fd5b5060016000600254815260200190815260200160002060000160006101000a81548173ffffffffffffffffffffffffffffffffffffffff021916908373ffffffffffffffffffffffffffffffffffffffff1602179055508060016000600254815260200190815260200160002060000160006101000a81548173ffffffffffffffffffffffffffffffffffffffff021916908373ffffffffffffffffffffffffffffffffffffffff16021790555082600160006002548152602001908152602001600020600101908051906020019062000a4c92919062000e3d565b5081600160006002548152602001908152602001600020600201819055507fa4035636e99f06b7651a604c1019fa4e8779fe68ef27eeb74dff2de348f6199b60025460016000600254815260200190815260200160002060030160009054906101000a900460ff16600281111562000aed577f4e487b7100000000000000000000000000000000000000000000000000000000600052602160045260246000fd5b60016000600254815260200190815260200160002060000160009054906101000a900473ffffffffffffffffffffffffffffffffffffffff1660405162000b3793929190620013e9565b60405180910390a16002600081548092919062000b5490620015db565b9190505550505050565b60008060009054906101000a900473ffffffffffffffffffffffffffffffffffffffff16905090565b60016020528060005260406000206000915090508060000160009054906101000a900473ffffffffffffffffffffffffffffffffffffffff169080600101805462000bd290620015a5565b80601f016020809104026020016040519081016040528092919081815260200182805462000c0090620015a5565b801562000c515780601f1062000c255761010080835404028352916020019162000c51565b820191906000526020600020905b81548152906001019060200180831162000c3357829003601f168201915b5050505050908060020154908060030160009054906101000a900460ff16905084565b62000c7e62000e27565b73ffffffffffffffffffffffffffffffffffffffff1662000c9e62000b5e565b73ffffffffffffffffffffffffffffffffffffffff161462000cf7576040517f08c379a000000000000000000000000000000000000000000000000000000000815260040162000cee90620013c7565b60405180910390fd5b600073ffffffffffffffffffffffffffffffffffffffff168173ffffffffffffffffffffffffffffffffffffffff16141562000d6a576040517f08c379a000000000000000000000000000000000000000000000000000000000815260040162000d619062001361565b60405180910390fd5b8073ffffffffffffffffffffffffffffffffffffffff1660008054906101000a900473ffffffffffffffffffffffffffffffffffffffff1673ffffffffffffffffffffffffffffffffffffffff167f8be0079c531659141344cd1fd0a4f28419497f9722a3daafe3b4186f6b6457e060405160405180910390a3806000806101000a81548173ffffffffffffffffffffffffffffffffffffffff021916908373ffffffffffffffffffffffffffffffffffffffff16021790555050565b600033905090565b6106dc806200174283390190565b82805462000e4b90620015a5565b90600052602060002090601f01602090048101928262000e6f576000855562000ebb565b82601f1062000e8a57805160ff191683800117855562000ebb565b8280016001018555821562000ebb579182015b8281111562000eba57825182559160200191906001019062000e9d565b5b50905062000eca919062000ece565b5090565b5b8082111562000ee957600081600090555060010162000ecf565b5090565b600062000f0462000efe846200145a565b62001426565b90508281526020810184848401111562000f1d57600080fd5b62000f2a84828562001560565b509392505050565b60008135905062000f43816200170d565b92915050565b600082601f83011262000f5b57600080fd5b813562000f6d84826020860162000eed565b91505092915050565b60008135905062000f878162001727565b92915050565b60006020828403121562000fa057600080fd5b600062000fb08482850162000f32565b91505092915050565b6000806040838503121562000fcd57600080fd5b600083013567ffffffffffffffff81111562000fe857600080fd5b62000ff68582860162000f49565b9250506020620010098582860162000f76565b9150509250929050565b6000602082840312156200102657600080fd5b6000620010368482850162000f76565b91505092915050565b6200104a81620014a9565b82525050565b6200105b81620014fc565b82525050565b6200106c8162001524565b82525050565b6200107d816200154c565b82525050565b600062001090826200148d565b6200109c818562001498565b9350620010ae8185602086016200156f565b620010b981620016e5565b840191505092915050565b6000620010d360158362001498565b91507f4974656d20697320616c726561647920706169642e00000000000000000000006000830152602082019050919050565b60006200111560268362001498565b91507f4f776e61626c653a206e6577206f776e657220697320746865207a65726f206160008301527f64647265737300000000000000000000000000000000000000000000000000006020830152604082019050919050565b60006200117d60218362001498565b91507f4974656d206d7573742062652070616964206265666f72652064656c6976657260008301527f79000000000000000000000000000000000000000000000000000000000000006020830152604082019050919050565b6000620011e560218362001498565b91507f46756c6c20616d6f756e74206d7573742062652070616964206174206f6e636560008301527f2e000000000000000000000000000000000000000000000000000000000000006020830152604082019050919050565b60006200124d60208362001498565b91507f4f776e61626c653a2063616c6c6572206973206e6f7420746865206f776e65726000830152602082019050919050565b6200128b81620014f2565b82525050565b6000602082019050620012a860008301846200103f565b92915050565b6000606082019050620012c5600083018662001050565b620012d4602083018562001280565b620012e3604083018462001280565b949350505050565b600060808201905062001302600083018762001061565b818103602083015262001316818662001083565b905062001327604083018562001280565b62001336606083018462001072565b95945050505050565b600060208201905081810360008301526200135a81620010c4565b9050919050565b600060208201905081810360008301526200137c8162001106565b9050919050565b600060208201905081810360008301526200139e816200116e565b9050919050565b60006020820190508181036000830152620013c081620011d6565b9050919050565b60006020820190508181036000830152620013e2816200123e565b9050919050565b600060608201905062001400600083018662001280565b6200140f602083018562001280565b6200141e60408301846200103f565b949350505050565b6000604051905081810181811067ffffffffffffffff8211171562001450576200144f620016b6565b5b8060405250919050565b600067ffffffffffffffff821115620014785762001477620016b6565b5b601f19601f8301169050602081019050919050565b600081519050919050565b600082825260208201905092915050565b6000620014b682620014d2565b9050919050565b6000819050620014cd82620016f6565b919050565b600073ffffffffffffffffffffffffffffffffffffffff82169050919050565b6000819050919050565b6000620015098262001510565b9050919050565b60006200151d82620014d2565b9050919050565b6000620015318262001538565b9050919050565b60006200154582620014d2565b9050919050565b60006200155982620014bd565b9050919050565b82818337600083830152505050565b60005b838110156200158f57808201518184015260208101905062001572565b838111156200159f576000848401525b50505050565b60006002820490506001821680620015be57607f821691505b60208210811415620015d557620015d462001687565b5b50919050565b6000620015e882620014f2565b91507fffffffffffffffffffffffffffffffffffffffffffffffffffffffffffffffff8214156200161e576200161d62001629565b5b600182019050919050565b7f4e487b7100000000000000000000000000000000000000000000000000000000600052601160045260246000fd5b7f4e487b7100000000000000000000000000000000000000000000000000000000600052602160045260246000fd5b7f4e487b7100000000000000000000000000000000000000000000000000000000600052602260045260246000fd5b7f4e487b7100000000000000000000000000000000000000000000000000000000600052604160045260246000fd5b6000601f19601f8301169050919050565b600381106200170a576200170962001658565b5b50565b6200171881620014a9565b81146200172457600080fd5b50565b6200173281620014f2565b81146200173e57600080fd5b5056fe608060405234801561001057600080fd5b506040516106dc3803806106dc833981810160405281019061003291906100b3565b816000819055508060028190555082600360006101000a81548173ffffffffffffffffffffffffffffffffffffffff021916908373ffffffffffffffffffffffffffffffffffffffff16021790555050505061017e565b60008151905061009881610150565b92915050565b6000815190506100ad81610167565b92915050565b6000806000606084860312156100c857600080fd5b60006100d686828701610089565b93505060206100e78682870161009e565b92505060406100f88682870161009e565b9150509250925092565b600061010d82610126565b9050919050565b600061011f82610102565b9050919050565b600073ffffffffffffffffffffffffffffffffffffffff82169050919050565b6000819050919050565b61015981610114565b811461016457600080fd5b50565b61017081610146565b811461017b57600080fd5b50565b61054f8061018d6000396000f3fe6080604052600436106100385760003560e01c80632986c0e51461026b5780633c8da5881461029657806389794d00146102c157610266565b3661026657600060015414610082576040517f08c379a0000000000000000000000000000000000000000000000000000000008152600401610079906103f5565b60405180910390fd5b600360009054906101000a900473ffffffffffffffffffffffffffffffffffffffff1673ffffffffffffffffffffffffffffffffffffffff166108fc349081150290604051600060405180830381858888f193505050501580156100ea573d6000803e3d6000fd5b5034600160008282546100fd9190610457565b925050819055506000600360009054906101000a900473ffffffffffffffffffffffffffffffffffffffff1673ffffffffffffffffffffffffffffffffffffffff16346002546040516024016101539190610415565b6040516020818303038152906040527f800fb83f000000000000000000000000000000000000000000000000000000007bffffffffffffffffffffffffffffffffffffffffffffffffffffffff19166020820180517bffffffffffffffffffffffffffffffffffffffffffffffffffffffff83818316178352505050506040516101dd91906103be565b60006040518083038185875af1925050503d806000811461021a576040519150601f19603f3d011682016040523d82523d6000602084013e61021f565b606091505b5050905080610263576040517f08c379a000000000000000000000000000000000000000000000000000000000815260040161025a906103d5565b60405180910390fd5b50005b600080fd5b34801561027757600080fd5b506102806102ec565b60405161028d9190610415565b60405180910390f35b3480156102a257600080fd5b506102ab6102f2565b6040516102b89190610415565b60405180910390f35b3480156102cd57600080fd5b506102d66102f8565b6040516102e39190610415565b60405180910390f35b60025481565b60005481565b60015481565b600061030982610430565b610313818561043b565b93506103238185602086016104b7565b80840191505092915050565b600061033c601e83610446565b91507f5472616e73616374696f6e206661696c65642c2063616e63656c6c696e6700006000830152602082019050919050565b600061037c601483610446565b91507f4974656d20697320616c726561647920706169640000000000000000000000006000830152602082019050919050565b6103b8816104ad565b82525050565b60006103ca82846102fe565b915081905092915050565b600060208201905081810360008301526103ee8161032f565b9050919050565b6000602082019050818103600083015261040e8161036f565b9050919050565b600060208201905061042a60008301846103af565b92915050565b600081519050919050565b600081905092915050565b600082825260208201905092915050565b6000610462826104ad565b915061046d836104ad565b9250827fffffffffffffffffffffffffffffffffffffffffffffffffffffffffffffffff038211156104a2576104a16104ea565b5b828201905092915050565b6000819050919050565b60005b838110156104d55780820151818401526020810190506104ba565b838111156104e4576000848401525b50505050565b7f4e487b7100000000000000000000000000000000000000000000000000000000600052601160045260246000fdfea26469706673582212202b0417b792e90072763323e32ab5c83bebbcf64727269e33a5a00d8072cb177164736f6c63430008000033a2646970667358221220d5f8497a710351e6468f3ef0422409950afa3a8f04b8ce9380f9c42b74ddf8ef64736f6c63430008000033",
  "immutableReferences": {},
  "source": "// SPDX-License-Identifier: MIT\r\npragma solidity ^0.8.0;\r\n// import \"@openzeppelin/contracts/access/Ownable.sol\";\r\nimport \"./Ownable.sol\";\r\nimport \"./Item.sol\";\r\n\r\ncontract ItemManager is Ownable{\r\n    enum Status {\r\n        Created,\r\n        Paid,\r\n        Delivered\r\n    }\r\n\r\n    struct ItemStruct {\r\n        Item _item;\r\n        string _identifier;\r\n        uint _price;\r\n        Status _status;\r\n    }\r\n\r\n    mapping(uint => ItemStruct) public items;\r\n    event SupplyChainStep(uint _itemIndex, uint _step, address _itemAddress);\r\n    uint itemIndex;\r\n\r\n    function createItem(string memory _itemIdentifier, uint _itemPrice) public onlyOwner {\r\n        Item item = new Item(this, _itemPrice, itemIndex);\r\n        items[itemIndex]._item = new Item(this, _itemPrice, itemIndex);\r\n        items[itemIndex]._item = item;\r\n        items[itemIndex]._identifier = _itemIdentifier;\r\n        items[itemIndex]._price = _itemPrice;\r\n        emit SupplyChainStep(itemIndex,\r\n                             uint(items[itemIndex]._status),\r\n                             address(items[itemIndex]._item));\r\n        itemIndex++;\r\n    }\r\n\r\n    function triggerPayment() public payable onlyOwner {\r\n        require(items[itemIndex]._price == msg.value, \"Full amount must be paid at once.\");\r\n        require(items[itemIndex]._status == Status.Created, \"Item is already paid.\");\r\n        items[itemIndex]._status = Status.Paid;\r\n        emit SupplyChainStep(itemIndex,\r\n                             uint(items[itemIndex]._status),\r\n                             address(items[itemIndex]._item));\r\n    }\r\n\r\n    function triggerDelivery() public onlyOwner {\r\n        require(items[itemIndex]._status == Status.Paid, \"Item must be paid before delivery\");\r\n        items[itemIndex]._status = Status.Delivered;\r\n        emit SupplyChainStep(itemIndex,\r\n                             uint(items[itemIndex]._status),\r\n                             address(items[itemIndex]._item));\r\n    }\r\n}",
  "sourcePath": "C:\\Kamlesh\\Learning\\Blockchain\\SupplyChain\\new\\contracts\\ItemManager.sol",
  "compiler": {
    "name": "solc",
    "version": "0.8.0+commit.c7dfd78e.Emscripten.clang"
  },
  "schemaVersion": "3.4.1",
  "updatedAt": "2021-05-25T08:58:41.412Z",
  "devdoc": {
    "kind": "dev",
    "methods": {
      "owner()": {
        "details": "Returns the address of the current owner."
      },
      "renounceOwnership()": {
        "details": "Leaves the contract without owner. It will not be possible to call `onlyOwner` functions anymore. Can only be called by the current owner. NOTE: Renouncing ownership will leave the contract without an owner, thereby removing any functionality that is only available to the owner."
      },
      "transferOwnership(address)": {
        "details": "Transfers ownership of the contract to a new account (`newOwner`). Can only be called by the current owner."
      }
    },
    "version": 1
  },
  "userdoc": {
    "kind": "user",
    "methods": {},
    "version": 1
  }
}